{
    "contractName": "ICOMarketplace",
    "abi": [
        {
            "inputs": [],
            "stateMutability": "nonpayable",
            "type": "constructor"
        },
        {
            "anonymous": false,
            "inputs": [
                {
                    "indexed": true,
                    "internalType": "address",
                    "name": "token",
                    "type": "address"
                },
                {
                    "indexed": false,
                    "internalType": "uint256",
                    "name": "price",
                    "type": "uint256"
                },
                {
                    "indexed": true,
                    "internalType": "address",
                    "name": "creator",
                    "type": "address"
                },
                {
                    "indexed": false,
                    "internalType": "string",
                    "name": "name",
                    "type": "string"
                },
                {
                    "indexed": false,
                    "internalType": "string",
                    "name": "symbol",
                    "type": "string"
                }
            ],
            "name": "TokenAdded",
            "type": "event"
        },
        {
            "anonymous": false,
            "inputs": [
                {
                    "indexed": true,
                    "internalType": "address",
                    "name": "token",
                    "type": "address"
                },
                {
                    "indexed": true,
                    "internalType": "address",
                    "name": "from",
                    "type": "address"
                },
                {
                    "indexed": false,
                    "internalType": "uint256",
                    "name": "amount",
                    "type": "uint256"
                }
            ],
            "name": "TokenRecieved",
            "type": "event"
        },
        {
            "anonymous": false,
            "inputs": [
                {
                    "indexed": true,
                    "internalType": "address",
                    "name": "token",
                    "type": "address"
                },
                {
                    "indexed": true,
                    "internalType": "address",
                    "name": "to",
                    "type": "address"
                },
                {
                    "indexed": false,
                    "internalType": "uint256",
                    "name": "amount",
                    "type": "uint256"
                }
            ],
            "name": "TokenTransferred",
            "type": "event"
        },
        {
            "anonymous": false,
            "inputs": [
                {
                    "indexed": true,
                    "internalType": "address",
                    "name": "token",
                    "type": "address"
                },
                {
                    "indexed": true,
                    "internalType": "address",
                    "name": "to",
                    "type": "address"
                },
                {
                    "indexed": false,
                    "internalType": "uint256",
                    "name": "amount",
                    "type": "uint256"
                }
            ],
            "name": "TokenWidthdraw",
            "type": "event"
        },
        {
            "inputs": [
                {
                    "internalType": "uint256",
                    "name": "",
                    "type": "uint256"
                }
            ],
            "name": "allSupportedTokens",
            "outputs": [
                {
                    "internalType": "address",
                    "name": "",
                    "type": "address"
                }
            ],
            "stateMutability": "view",
            "type": "function"
        },
        {
            "inputs": [
                {
                    "internalType": "address",
                    "name": "_token",
                    "type": "address"
                },
                {
                    "internalType": "uint256",
                    "name": "_amount",
                    "type": "uint256"
                }
            ],
            "name": "buyToken",
            "outputs": [],
            "stateMutability": "payable",
            "type": "function"
        },
        {
            "inputs": [
                {
                    "internalType": "address",
                    "name": "_token",
                    "type": "address"
                },
                {
                    "internalType": "uint256",
                    "name": "_price",
                    "type": "uint256"
                }
            ],
            "name": "createICOSale",
            "outputs": [],
            "stateMutability": "nonpayable",
            "type": "function"
        },
        {
            "inputs": [],
            "name": "getAllTokens",
            "outputs": [
                {
                    "components": [
                        {
                            "internalType": "address",
                            "name": "token",
                            "type": "address"
                        },
                        {
                            "internalType": "bool",
                            "name": "supported",
                            "type": "bool"
                        },
                        {
                            "internalType": "uint256",
                            "name": "price",
                            "type": "uint256"
                        },
                        {
                            "internalType": "address",
                            "name": "creator",
                            "type": "address"
                        },
                        {
                            "internalType": "string",
                            "name": "name",
                            "type": "string"
                        },
                        {
                            "internalType": "string",
                            "name": "symbol",
                            "type": "string"
                        }
                    ],
                    "internalType": "struct ICOMarketplace.TokenDetails[]",
                    "name": "",
                    "type": "tuple[]"
                }
            ],
            "stateMutability": "view",
            "type": "function"
        },
        {
            "inputs": [
                {
                    "internalType": "address",
                    "name": "_token",
                    "type": "address"
                }
            ],
            "name": "getBalance",
            "outputs": [
                {
                    "internalType": "uint256",
                    "name": "",
                    "type": "uint256"
                }
            ],
            "stateMutability": "view",
            "type": "function"
        },
        {
            "inputs": [],
            "name": "getSupportedTokens",
            "outputs": [
                {
                    "internalType": "address[]",
                    "name": "",
                    "type": "address[]"
                }
            ],
            "stateMutability": "view",
            "type": "function"
        },
        {
            "inputs": [
                {
                    "internalType": "address",
                    "name": "_creator",
                    "type": "address"
                }
            ],
            "name": "getTokenCreatedBy",
            "outputs": [
                {
                    "components": [
                        {
                            "internalType": "address",
                            "name": "token",
                            "type": "address"
                        },
                        {
                            "internalType": "bool",
                            "name": "supported",
                            "type": "bool"
                        },
                        {
                            "internalType": "uint256",
                            "name": "price",
                            "type": "uint256"
                        },
                        {
                            "internalType": "address",
                            "name": "creator",
                            "type": "address"
                        },
                        {
                            "internalType": "string",
                            "name": "name",
                            "type": "string"
                        },
                        {
                            "internalType": "string",
                            "name": "symbol",
                            "type": "string"
                        }
                    ],
                    "internalType": "struct ICOMarketplace.TokenDetails[]",
                    "name": "",
                    "type": "tuple[]"
                }
            ],
            "stateMutability": "view",
            "type": "function"
        },
        {
            "inputs": [
                {
                    "internalType": "address",
                    "name": "_token",
                    "type": "address"
                }
            ],
            "name": "getTokenDetails",
            "outputs": [
                {
                    "components": [
                        {
                            "internalType": "address",
                            "name": "token",
                            "type": "address"
                        },
                        {
                            "internalType": "bool",
                            "name": "supported",
                            "type": "bool"
                        },
                        {
                            "internalType": "uint256",
                            "name": "price",
                            "type": "uint256"
                        },
                        {
                            "internalType": "address",
                            "name": "creator",
                            "type": "address"
                        },
                        {
                            "internalType": "string",
                            "name": "name",
                            "type": "string"
                        },
                        {
                            "internalType": "string",
                            "name": "symbol",
                            "type": "string"
                        }
                    ],
                    "internalType": "struct ICOMarketplace.TokenDetails",
                    "name": "",
                    "type": "tuple"
                }
            ],
            "stateMutability": "view",
            "type": "function"
        },
        {
            "inputs": [],
            "name": "owner",
            "outputs": [
                {
                    "internalType": "address",
                    "name": "",
                    "type": "address"
                }
            ],
            "stateMutability": "view",
            "type": "function"
        },
        {
            "inputs": [
                {
                    "internalType": "address",
                    "name": "",
                    "type": "address"
                }
            ],
            "name": "tokenDetails",
            "outputs": [
                {
                    "internalType": "address",
                    "name": "token",
                    "type": "address"
                },
                {
                    "internalType": "bool",
                    "name": "supported",
                    "type": "bool"
                },
                {
                    "internalType": "uint256",
                    "name": "price",
                    "type": "uint256"
                },
                {
                    "internalType": "address",
                    "name": "creator",
                    "type": "address"
                },
                {
                    "internalType": "string",
                    "name": "name",
                    "type": "string"
                },
                {
                    "internalType": "string",
                    "name": "symbol",
                    "type": "string"
                }
            ],
            "stateMutability": "view",
            "type": "function"
        },
        {
            "inputs": [
                {
                    "internalType": "address",
                    "name": "_token",
                    "type": "address"
                },
                {
                    "internalType": "uint256",
                    "name": "_amount",
                    "type": "uint256"
                }
            ],
            "name": "widthdrawToken",
            "outputs": [],
            "stateMutability": "nonpayable",
            "type": "function"
        },
        {
            "stateMutability": "payable",
            "type": "receive"
        }
    ],
    "bytecode": "60808060405234602757600280546001600160a01b03191633179055611446908161002c8239f35b5f80fdfe6080806040526004361015610070575b50361561001a575f80fd5b60405162461bcd60e51b815260206004820152602860248201527f436f6e747261637420646f6573206e6f74206163636570742045746865722064604482015267034b932b1ba363c960c51b6064820152608490fd5b5f3560e01c9081632a07400814610b9f575080632a5c792a14610ad85780633a80f21d14610a965780635f5688101461088057806368f8fc101461059157806388aa8bee146104d15780638da5cb5b146104a9578063d3c7c2c7146103e1578063dd4be68314610339578063eb18c0e5146101a85763f8b2cb4f146100f5575f61000f565b3461019157602036600319011261019157602460206001600160a01b0361011a610fae565b16805f525f825261013460ff60405f205460a01c166113c0565b6040516370a0823160e01b815230600482015292839182905afa801561019d575f90610166575b602090604051908152f35b506020813d602011610195575b816101806020938361112e565b81010312610191576020905161015b565b5f80fd5b3d9150610173565b6040513d5f823e3d90fd5b34610191576020366003190112610191576101c1610fae565b6001546001600160a01b03909116905f805b8281106102e857506101e4906112b7565b915f905f5b83811061020257604051806101fe878261104f565b0390f35b61020b816110ae565b90546001600160a01b0360039290921b1c81165f9081526020819052604090206002015416821461023f575b6001016101e9565b916102e060019161024f856110ae565b848060a01b0391549060031b1c165f525f60205260405f206102c060046040519261027984611112565b805460a088811b899003808316875291901c60ff161515602086015287820154604086015260028201541660608501526102b560038201611150565b608085015201611150565b60a08201526102cf8289611306565b526102da8188611306565b50611402565b929050610237565b6102f1816110ae565b90546001600160a01b0360039290921b1c81165f90815260208190526040902060020154168414610325575b6001016101d3565b90610331600191611402565b91905061031d565b34610191576020366003190112610191576001600160a01b0361035a610fae565b165f525f60205260ff60405f206101fe8154916103d360018201549160018060a01b0360028201541661039b600461039460038501611150565b9301611150565b9360405197889760018060a01b038116895260a01c16151560208801526040870152606086015260c0608086015260c0850190610fc4565b9083820360a0850152610fc4565b34610191575f366003190112610191576040518060206001549283815201809260015f527fb10e2d527612073b26eecdfd717e6a320cf44b4afac2b0732d9fcbe2b7fa0cf6905f5b81811061048a575050508161043f91038261112e565b604051918291602083019060208452518091526040830191905f5b818110610468575050500390f35b82516001600160a01b031684528594506020938401939092019160010161045a565b82546001600160a01b0316845260209093019260019283019201610429565b34610191575f366003190112610191576002546040516001600160a01b039091168152602090f35b34610191576020366003190112610191576104ea610fae565b6104f2611287565b506001600160a01b03165f818152602081905260409020546105199060a01c60ff166113c0565b5f525f6020526101fe60405f2061057860046040519261053884611112565b80546001600160a01b03808216865260a09190911c60ff16151560208601526001820154604086015260028201541660608501526102b560038201611150565b60a0820152604051918291602083526020830190610fe8565b6040366003190112610191576105a5610fae565b6024359060018060a01b0316805f525f6020526105cb60ff60405f205460a01c1661131a565b811580156105d88161135c565b825f525f60205260405f20906040516105f081611112565b60ff835460018060a01b038116835260a01c16151560208201526001830154906040810191825260a06106496004600180841b03600288015416966060850197885261063e60038201611150565b608086015201611150565b91015251905f918491610848575b501561019157340361080357515f9081908190819034906001600160a01b03165af13d156107fe573d610689816111f0565b90610697604051928361112e565b81525f60203d92013e5b156107a657670de0b6b3a7640000830290838204670de0b6b3a76400001417156107925760405163a9059cbb60e01b815233600482015260248101919091526020816044815f865af190811561019d575f91610763575b501561072c576040519182527f9c8515990fd8c61431c4ac8db9b81475f90c292a1dda77731e56c22e64fc764360203393a3005b60405162461bcd60e51b815260206004820152600f60248201526e151c985b9cd9995c8811985a5b1959608a1b6044820152606490fd5b610785915060203d60201161078b575b61077d818361112e565b8101906113a8565b836106f8565b503d610773565b634e487b7160e01b5f52601160045260245ffd5b60405162461bcd60e51b815260206004820152602a60248201527f4661696c656420746f207472616e736566657220457468657220746f20746f6b60448201526932b71031b932b0ba37b960b11b6064820152608490fd5b6106a1565b60405162461bcd60e51b815260206004820152601b60248201527f496e636f727265637420457468657220616d6f756e742073656e7400000000006044820152606490fd5b9150508481029080820486148115171561079257818461086c578690041486610657565b634e487b7160e01b5f52601260045260245ffd5b3461019157604036600319011261019157610899610fae565b6001600160a01b039081165f8181526020819052604090206002015460243592163303610a5257805f525f6020526108da60ff60405f205460a01c1661131a565b6108e582151561135c565b6040516370a0823160e01b8152306004820152602081602481855afa801561019d5783915f91610a1d575b50106109d85760405163a9059cbb60e01b8152336004820152602481018390526020816044815f865af190811561019d575f916109b9575b501561097c576040519182527f168d0b28f073c346700400252a3d9353bcebd06bd7dd82ad5cc5c57a773bb06e60203393a3005b60405162461bcd60e51b8152602060048201526015602482015274151bdad95b881d1c985b9cd9995c8819985a5b1959605a1b6044820152606490fd5b6109d2915060203d60201161078b5761077d818361112e565b83610948565b60405162461bcd60e51b815260206004820152601b60248201527f496e73756666696369656e7420746f6b656e2062616c616e63652000000000006044820152606490fd5b9150506020813d602011610a4a575b81610a396020938361112e565b810103126101915782905184610910565b3d9150610a2c565b606460405162461bcd60e51b815260206004820152602060248201527f43616c6c6572206973206e6f742074686520746f6b656e2063726561746f72206044820152fd5b346101915760203660031901126101915760043560015481101561019157610abf6020916110ae565b905460405160039290921b1c6001600160a01b03168152f35b34610191575f36600319011261019157600154610af4816112b7565b905f5b818110610b0c57604051806101fe858261104f565b80610b186001926110ae565b838060a01b0391549060031b1c165f525f60205260405f20610b7e600460405192610b4284611112565b805460a087811b889003808316875291901c60ff161515602086015286820154604086015260028201541660608501526102b560038201611150565b60a0820152610b8d8286611306565b52610b988185611306565b5001610af7565b3461019157604036600319011261019157610bb8610fae565b6306fdde0360e01b82526001600160a01b03166024355f83600481855afa92831561019d575f93610f92575b506040516395d89b4160e01b8152925f84600481865afa93841561019d575f94610f6e575b50604051610c1681611112565b83815260016020808301828152604080850187815233606087019081526080870188815260a08089018d81525f8d815297889052949096209751885495516001600160a81b03199096166001600160a01b039182161795151590961b60ff60a01b1694909417875590519486019490945592516002850180546001600160a01b0319169190931617909155518051919291600383019167ffffffffffffffff8211610de557610cc583546110da565b601f8111610f29575b50602090601f8311600114610ec2576004949392915f9183610eb7575b50508160011b915f199060031b1c19161790555b01905180519067ffffffffffffffff8211610de5578190610d2084546110da565b601f8111610e67575b50602090601f8311600114610e04575f92610df9575b50508160011b915f199060031b1c19161790555b6001549168010000000000000000831015610de557610d998360017f3a9a79cd15a41f1359a9a9233af1f78982f570cfef886de45a01769c231b4c8495016001556110ae565b81549060031b9086821b9160018060a01b03901b1916179055610de0610dd16040519384938452606060208501526060840190610fc4565b82810360408401523396610fc4565b0390a3005b634e487b7160e01b5f52604160045260245ffd5b015190508780610d3f565b5f8581528281209350601f198516905b818110610e4f5750908460019594939210610e37575b505050811b019055610d53565b01515f1960f88460031b161c19169055878080610e2a565b92936020600181928786015181550195019301610e14565b909150835f5260205f20601f840160051c81019160208510610ead575b90601f859493920160051c01905b818110610e9f5750610d29565b5f8155849350600101610e92565b9091508190610e84565b015190508a80610ceb565b90601f19831691845f52815f20925f5b818110610f11575091600193918560049897969410610ef9575b505050811b019055610cff565b01515f1960f88460031b161c191690558a8080610eec565b92936020600181928786015181550195019301610ed2565b835f5260205f20601f840160051c81019160208510610f64575b601f0160051c01905b818110610f595750610cce565b5f8155600101610f4c565b9091508190610f43565b610f8b9194503d805f833e610f83818361112e565b81019061120c565b9284610c09565b610fa79193503d805f833e610f83818361112e565b9183610be4565b600435906001600160a01b038216820361019157565b805180835260209291819084018484015e5f828201840152601f01601f1916010190565b61104c9160018060a01b0382511681526020820151151560208201526040820151604082015260018060a01b03606083015116606082015260a061103b608084015160c0608085015260c0840190610fc4565b9201519060a0818403910152610fc4565b90565b602081016020825282518091526040820191602060408360051b8301019401925f915b83831061108157505050505090565b909192939460208061109f600193603f198682030187528951610fe8565b97019301930191939290611072565b6001548110156110c65760015f5260205f2001905f90565b634e487b7160e01b5f52603260045260245ffd5b90600182811c92168015611108575b60208310146110f457565b634e487b7160e01b5f52602260045260245ffd5b91607f16916110e9565b60c0810190811067ffffffffffffffff821117610de557604052565b90601f8019910116810190811067ffffffffffffffff821117610de557604052565b9060405191825f825492611163846110da565b80845293600181169081156111ce575060011461118a575b506111889250038361112e565b565b90505f9291925260205f20905f915b8183106111b2575050906020611188928201015f61117b565b6020919350806001915483858901015201910190918492611199565b90506020925061118894915060ff191682840152151560051b8201015f61117b565b67ffffffffffffffff8111610de557601f01601f191660200190565b6020818303126101915780519067ffffffffffffffff8211610191570181601f8201121561019157805190611240826111f0565b9261124e604051948561112e565b8284526020838301011161019157815f9260208093018386015e8301015290565b67ffffffffffffffff8111610de55760051b60200190565b6040519061129482611112565b606060a0835f81525f60208201525f60408201525f838201528260808201520152565b906112c18261126f565b6112ce604051918261112e565b82815280926112df601f199161126f565b01905f5b8281106112ef57505050565b6020906112fa611287565b828285010152016112e3565b80518210156110c65760209160051b010190565b1561132157565b60405162461bcd60e51b8152602060048201526013602482015272151bdad95b881b9bdd0814dd5c1c1bdc9d1959606a1b6044820152606490fd5b1561136357565b60405162461bcd60e51b815260206004820152601d60248201527f416d6f756e74206d7573742062652067726561746572207468616e20300000006044820152606490fd5b90816020910312610191575180151581036101915790565b156113c757565b60405162461bcd60e51b8152602060048201526013602482015272151bdad95b881b9bdd081cdd5c1c1bdc9d1959606a1b6044820152606490fd5b5f198114610792576001019056fea2646970667358221220508a258376f265a9536da2a8cb8299b7b0badc54ca54fed63cdb752aa490fa9164736f6c634300081c0033",
    "sourcePath": "c:/Users/Nexsis/Desktop/Crypto-ICO-Marketplace-Starter-File-main/contracts/PreSale.sol",
    "compiler": {
        "name": "solc",
        "version": "0.8.28+commit.7893614a"
    },
    "functionHashes": {
        "allSupportedTokens(uint256)": "3a80f21d",
        "buyToken(address,uint256)": "68f8fc10",
        "createICOSale(address,uint256)": "2a074008",
        "getAllTokens()": "2a5c792a",
        "getBalance(address)": "f8b2cb4f",
        "getSupportedTokens()": "d3c7c2c7",
        "getTokenCreatedBy(address)": "eb18c0e5",
        "getTokenDetails(address)": "88aa8bee",
        "owner()": "8da5cb5b",
        "tokenDetails(address)": "dd4be683",
        "widthdrawToken(address,uint256)": "5f568810"
    },
    "gasEstimates": {
        "creation": {
            "codeDepositCost": "1038000",
            "executionCost": "25324",
            "totalCost": "1063324"
        },
        "external": {
            "allSupportedTokens(uint256)": "6677",
            "buyToken(address,uint256)": "infinite",
            "createICOSale(address,uint256)": "infinite",
            "getAllTokens()": "infinite",
            "getBalance(address)": "infinite",
            "getSupportedTokens()": "infinite",
            "getTokenCreatedBy(address)": "infinite",
            "getTokenDetails(address)": "infinite",
            "owner()": "2412",
            "tokenDetails(address)": "infinite",
            "widthdrawToken(address,uint256)": "infinite"
        },
        "internal": {
            "multiply(uint256,uint256)": "infinite"
        }
    }
}